:020000040000FA
:0600000088EF0BF0120076
:020006001200E6
:0600080000EF07F01200FA
:02000E000100EF
:0C001000721700008000000018000000C3
:04001C004AEC05F0B5
:10002000FB0EDBCFF3FFDB06F35000090AE098EC90
:1000300005F0FA0E03EC06F0F3E1151CF1E1010EF8
:1000400001D0000E79EF05F04AEC05F03B0EE124FB
:1000500002E3E168E652E16E010EDB6A020EDB6A42
:10006000F90EDBCFF6FFFA0EDBCFF7FFFB0EDBCF8F
:10007000F8FF0800F550DF6EDF5002E19DEF04F05D
:10008000250EDF5C02E090EF04F0030EDB6A040E45
:10009000DB6A050EDB6A060EDB6A070EDB6AB2EC72
:1000A00004F02D0EDF5C0CE02B0EDF5C09E0200E6F
:1000B000DF5C06E0230EDF5C03E0300EDF5C1AE15C
:1000C000DF50300A14E0130A0FE0030A0AE00B0ABB
:1000D00005E0060AE4E1030EDB80E1D7030EDB82D4
:1000E000DED7030EDB84DBD7030EDB86D8D7030E07
:1000F000DB88D5D72A0EDF5C1BE1AEEC04F0FCEC0C
:1001000004F010E0030EDB8008680968130EDBCFF3
:100110000DF0140EDBCF0EF062EC09F0040E06C0F9
:10012000DBFF03D0130EE5EC04F0B2EC04F00BD0CF
:10013000090EDB6A53EC05F003E0C7EC05F0FAD7D3
:10014000090EE5EC04F0030EDBB0DB982E0EDF5C4D
:100150001BE1B2EC04F02A0EDF5C0BE1AEEC04F024
:10016000FCEC04F003E1130E37EC05F0B2EC04F004
:100170000BD0090EDB6A53EC05F003E0C7EC05F089
:10018000FAD7090E37EC05F0680EDF5C07E1B2EC38
:1001900004F0680EDF5C1DE1030E18D0740EDF5C06
:1001A00017E07A0EDF5C14E0480EDF5C06E0540EC8
:1001B000DF5C03E05A0EDF5C02E1020E07D06C0E3A
:1001C000DF5C03E06A0EDF5C04E1010E8AEC05F0FF
:1001D000C9DBDF506E0A01E17FD31E0A01E192D133
:1001E000200A01E18FD13F0A01E149D11A0A01E158
:1001F00046D10D0A01E143D1200A01E140D13A0A7A
:1002000001E13DD1200A01E13AD1260A01E135D1CF
:100210000D0A01E132D11A0A01E1D9D0200A4AE0DF
:10022000300A1FE0460A0EE0250A01E083D3D950C8
:10023000F90FE96EFF0EDA20EA6E010EEE5E000E97
:10024000EE5AEE5A98EC05F0250EE66E95DB03E1CA
:10025000151C01E169D394EC05F001E26BD3DB2AB4
:1002600069D3080EDB6A040EDB50010806E2040EB7
:10027000DB045CEC05F0DB508BDB080EDB5009E0A7
:10028000030EDB50010B05E172DB01E04DD3080EDC
:10029000DB6A64DBEFCFDFFF0CEC06F003E1151C3B
:1002A00001E142D394EC05F001E3DB2A60DB01E1DC
:1002B00041D33AD3070EDB5002080FE1D8EC05F02A
:1002C000030E9FEC05F00E0EEECFDBFF0F0EEECF10
:1002D000DBFF100EEECFDBFF20D0F70EDBCF17F0E9
:1002E000F80EDBCF18F0020E175E000E185AF70E4C
:1002F00017C0DBFFF80E18C0DBFF17C0E9FF18C0FE
:10030000EAFF8FEC05F0166A0E0E14C0DBFF0F0E2D
:1003100015C0DBFF100E16C0DBFF0E0EDBCFE6FFB5
:100320000F0EDBCFE6FF100EDBCFE6FF3DEC09F052
:10033000E552E552E552130E07C0DBFF140E08C06C
:10034000DBFF060EDB5005E0130ED3EC05F001E2F7
:100350006ADBF7EC05F002E2130E37DBBAEC05F0CE
:1003600006E0040ED3EC05F002E2050E2EDB030ED0
:10037000DBB005D0FCDA01E0D7D2080EDB6A090E4B
:10038000DB6A0E0EDBCFF6FF0F0EDBCFF7FF100E92
:10039000DBCFF8FF0800F550DF6EDF5014E0FDEC16
:1003A00005F011E20CEC06F003E1151C01E1BCD2F2
:1003B000BBDB01E3DB2A090EDB2AD9500E0FE96E05
:1003C000000ECBDBE7D7D3DA01E1B4D2ADD2C6DA87
:1003D000110EEECFDBFF120EEDCFDBFF110EDBCFE8
:1003E000E6FF120EDBCFE6FF2FEC09F0E552E552F7
:1003F000130EF3CFDBFF140EF4CFDBFF060EDB5042
:1004000004E0130ED0DB01E20EDBF7EC05F002E2B4
:10041000130EDBDAAFDB05E0040EC5DB02E2050EEE
:10042000D4DA030EDBB005D0A2DA01E07DD2080EEB
:10043000DB6A090EDB6A110EDBCFE9FF120EDBCFA0
:10044000EAFFEFCFDFFFDF5014E0D7DB12E2E4DB9F
:1004500003E1151C01E168D267DB01E3DB2A090E29
:10046000DB2A110EDB2ADBCFE9FF120EE8E3DB2AE1
:10047000E6D77DDA01E15ED257D2030EDB8E070E9E
:10048000DB0410E195DB040E5ADB0A0EEECFDBFF36
:100490000B0EEECFDBFF0C0EEECFDBFF0D0EEECF23
:1004A000DBFF6CD0070EDB5003082CE1030EDBAE44
:1004B0000DD0B2DA020E76DAEFCF14F0156A166AB2
:1004C000176A14AE39D01568166835D0F70EDBCF31
:1004D00015F0F80EDBCF16F0020E155E000E165A60
:1004E000F70E15C0DBFFF80E16C0DBFF15C0E9FFE5
:1004F00016C0EAFFEFCF14F00A0E14C0DBFF0B0E9C
:10050000DB6A38D0070EDB50020809E1030EDBAED0
:1005100004D059DB16AE10D00ED055DB0DD0030E33
:10052000DBAE12D079DA020E3DDAF9DA166A176A12
:1005300015AE02D016681768E2DA0C0E16C0DBFFA3
:100540000D0E17C0DBFF1AD0F70EDBCF16F0F80E3A
:10055000DBCF17F0020E165E000E175AF70E16C00C
:10056000DBFFF80E17C0DBFF16C0E9FF17C0EAFF7C
:10057000D6DAC5DA0C0EDB6A0D0EDB6A060EDB502E
:1005800005E1010EF36E050EF3CFDBFF150EDB6AFE
:10059000160EDB6AD950370F146E000EDA20156E76
:1005A000390E14C0DBFF3A0E15C0DBFF380EDB6AD4
:1005B000080EDB6A0A0EAEDADF50780A12E0200A73
:1005C00010E0280A0CE0200A0AE03F0A06E00D0AC3
:1005D00002E0200A08E1020E05D0080E03D0080E42
:1005E000DF26100E97DA030EDBBE02D0DB92DB941F
:1005F000DB50800B24E08ADAD890030EEB50000A1F
:1006000008E6000EEE5C000EEE58000EEE58000EEE
:10061000EE5815E213DA0B680C680D680E68F7ECFB
:1006200008F00A0E02C0DBFF0B0E03C0DBFF0C0E4E
:1006300004C0DBFF0D0E05C0DBFF2D0E08D0030E3E
:10064000DBA202D02B0E03D0DBA408D0200EF36E69
:10065000170EF3CFDBFF150EDB2A02D0170EDB6A75
:10066000050EDB5003E1B7D901E189D05E0E146EAF
:10067000170E156E000E166E070EDBCF17F0186AF8
:10068000196A1A6A17C00BF018C00CF019C00DF0E7
:100690001AC00EF0D3D975EC0AF014500224F36E90
:1006A00015500320F46E16500420F86EF4CFF7FFB7
:1006B000F3CFF6FF0800090EF5CFDBFF580EDF5C25
:1006C0000FE1610EF36E090E7BD90AE3200E146E62
:1006D000090EDBCFE7FF1450E75E090EE7CFDBFF23
:1006E000070EDBCF14F0156A166A176A0FDA14C00A
:1006F0000BF015C00CF016C00DF017C00EF0EECFC9
:1007000006F0EECF07F0EECF08F0EFCF09F075EC72
:100710000AF009C0EDFF08C0EDFF07C0EDFF06C0FD
:10072000EFFF390EDBCFE9FFDB063A0EDBCFEAFF46
:1007300001E2DB06090EDBCFEFFF150EDB2A4BD9FA
:1007400095E1030EDBA61DD06F0EDF5C06E1C1D97B
:1007500018E3150EDB285BDA14D0780EDF5C09E0B5
:10076000580EDF5C06E0620EDF5C03E0420EDF5CE9
:1007700008E1020EF36E160EF3CFDBFF02D0150E6A
:10078000DB6A030EDB50100B0EE0040EDBCF14F01F
:10079000050EDB50D880145406E2060EDB5003E150
:1007A000040EDB5034DA95D90AE2050EDBCFE7FF01
:1007B000150EDB50E75E050EE7CFDBFF02D0050E1E
:1007C000DB6A040EDBCF14F0160E45D9D880145422
:1007D00014E2160EDBCFE6FF150EDBCFE6FF040EAC
:1007E000DBCFE6FF050EDB50E552E75CE552D88033
:1007F000E754E552D880E7545FD9030EDB50010B74
:100800000BE1080EDB5008E0B2D801E08DD0080EF5
:10081000DB50BED8080EDB6A170EDB5007E088D924
:10082000170EF1D903E1151C01E17ED0160EDB5045
:1008300016E07ED9300EE66E9FD802E1151C74E0FA
:1008400077D9DFCFE6FFB5EC08F0E552E552E55287
:10085000F4CF15F00001F31C02E1151C65E0050E54
:10086000DBCF14F0160EDB50D880145409E2050ECD
:10087000DBCFE7FF160EDB50E75E050EE7CFDBFFB1
:10088000300EE66E050ECBD94FE1390EDB2ADBCFF9
:10089000E9FF3A0E01E3DB2ADBCFEAFF090EEFCFD7
:1008A000DBFFDB500EE044D9090EADD902E1151C87
:1008B0003BE0390EDB2ADBCFE9FF3A0EEDE3DB2A22
:1008C000EBD755D831E1160EDBCFE6FF080EC3D8C3
:1008D000E552E7245DD82ED0070EDB50030A1CE05A
:1008E000010A14E0030A07E07BD9DBCFEEFF020E1A
:1008F000DBCFEDFF1FD0F5D8196A17AE02D018680C
:1009000019682CD8BCD819C0EEFF14D0EAD817BE8D
:10091000186824D8B4D80ED063D9DBCFEFFF0AD043
:100920007BD905E1151C03E1F368F46810D0FCD80D
:1009300001E3DB2A79D939EF00F0010EDBCF14F0A7
:10094000020EDBCF15F014C0F3FF15C0F4FF3B0E11
:10095000E15C02E2E16AE552E16ECBD029D9020EF8
:100960009FEF05F061D90800F550DF6E1200200EF0
:10097000E66E080E0FEF06F0B5EC08F0E552E55212
:10098000E552F3CF14F0F4CF15F00001F31C120080
:10099000146E156AD950010F4DD91450EE2615501A
:1009A000ED221200185E000E195AF70E18C0DBFF78
:1009B000F80E19C0DBFF18C0E9FF19C0EAFF1200EA
:1009C000DBCFF4FFF350F45C1200DB50E76E040E53
:1009D000E7CFDBFF12000A0EDBCF14F00B0EDBCFEC
:1009E00015F00C0EDBCF16F00D0EDBCF17F0145008
:1009F0001510161017101200130EEECFDBFF140E99
:100A0000EDCFDBFF130EDBCF14F0140EDBCF15F0B0
:100A10000001800E15141200F70EDBCF18F0F80E4F
:100A2000DBCF19F01200050EDB50E66ED950130F24
:100A300001D9E552E750EE6EED6A12000A0EDBCFE7
:100A400006F00B0EDBCF07F00C0EDBCF08F00D0E1F
:100A5000DBCF09F01200DBCFE6FF150EDBCFE6FFA0
:100A6000050EDB50E552E724E552E7241200DB5087
:100A7000CED8010EF36E060EF3CFDBFF1200EE5060
:100A8000EFCFEAFFE96E16C0EEFF17C0EEFF18C009
:100A9000EEFF1200D9CFE6FFDACFE6FFE1CFD9FFB4
:100AA000E2CFDAFF1200DFCFE6FFE66A47EC0BF099
:100AB000E552E552F3501200E76E080EE7CFDBFF78
:100AC0001200EECF14F0EECF15F0EFCF16F0176A4C
:100AD0001200050EDBCF14F0150EDB50D880145435
:100AE0001200010EDBCF16F0020EDBCF17F0186AF2
:100AF0001200E552E5CFDAFFE7CFD9FF12000A0E68
:100B000014C0DBFF0B0E15C0DBFF1200D9500A0F1B
:100B10001AEF06F0F36E070EF3CFDBFF1200EECFF5
:100B200014F0EFCF15F01200010EDB2A020E1200B6
:100B3000FC0EDBCFE6FFFD0EDBCFE6FF1200145EFE
:100B4000000E155AF70E14C0DBFFF80E15C0DBFFC0
:100B500014C0E9FF15C0EAFF1200DA20EA6EEF2A9E
:100B6000EECFF6FF000EEF22EECFF7FFEF22EECF33
:100B7000F8FF1200040EDBCFE6FF130EDB50E55248
:100B8000E75C9ADFDB5004DF060EDB501200090E33
:100B9000DB500A0DF350DF24D00FE76E090EE7CFCC
:100BA000DBFFB2EF04F0DB50F36E050EE0EF04F074
:100BB000F70EDBCF14F0F80EDBCF15F01200DFCF0D
:100BC000E6FFBCEF04F028DF030EECDE61EF05F07A
:100BD0000EEC00F0E552E552E552E5520009120034
:100BE000BDDEEE50EFCFEAFFE96E010E1200130EEC
:100BF000DB50F36E040EE0EF04F0040EDB50F36EF6
:100C0000090EE0EF04F0DBCFE6FFBCEF04F0E76E87
:100C1000050EE7CFDBFF12008BDFDFEF05F0DBCF48
:100C2000E6FF86DFE8EF05F0D950F90FE96EFF0E19
:0E0C3000ADEF05F0E96E000EDA20EA6E12005C
:020C3E000000B4
:100C40000000000000000000000000000000010E95
:100C5000E66EA4EC0BF0E5521200050EE66E59ECC0
:100C60000BF0E55212000F0EE66E59EC0BF0E55258
:100C70001200836A956A280EE66EA9EC07F0E55229
:100C800015EC0BF00009FCE1E66A8FEC09F0E55287
:100C9000060EE66E2AEC0AF0E55215EC0BF00009A0
:100CA000FCE10F0EE66E2AEC0AF0E55215EC0BF0B3
:100CB0000009FCE1120015EC0BF00009FCE1E66A0A
:100CC0008FEC09F0E55215EC0BF00009FCE1800E09
:100CD000E66E000EE66E50EC0AF0E552E55215ECB9
:100CE0000BF00009FCE1400EE66E8FEC09F0E552D6
:100CF00015EC0BF00009FCE1800EE66E000EE66ECE
:100D000050EC0AF0E552E55215EC0BF00009FCE15D
:100D1000100EE66E8FEC09F0E55215EC0BF00009B1
:100D2000FCE1800EE66E000EE66E50EC0AF0E55235
:100D3000E55215EC0BF00009FCE1500EE66E8FEC6D
:100D400009F0E55215EC0BF00009FCE1800EE66EAF
:100D5000000EE66E50EC0AF0E552E5521200960ED7
:100D6000E66EF9EC0AF0E5521200D9CFE6FFE1CFCA
:100D7000D9FF500EE126FD0EDBCFE6FFFE0EDBCFE6
:100D8000E6FFFF0E146E160E156E166A14C0E6FF0F
:100D9000E66E16C0E6FFD9CFE6FFDACFE6FF10EC2D
:100DA00008F0176E070EE15E175015EC0BF0000906
:100DB000FCE1E66A8FEC09F0E552F20EE66E160EE3
:100DC000E66EDDEC09F0E552E55215EC0BF000099A
:100DD000FCE1400EE66E8FEC09F0E552D9CFE6FF5C
:100DE000DACFE6FF50EC0AF0E552E552500EE15C36
:100DF00002E2E16AE552E16EE552E7CFD9FF120067
:100E0000DACFE4FFE2CFDAFFE9CFE4FFEACFE4FF95
:100E1000F6CFE4FFF7CFE4FFF5CFE4FFF3CFE4FF35
:100E2000F4CFE4FFFACFE4FF00EE00F0140EE80484
:100E300003E3EECFE4FFFBD700EE14F0070EE80467
:100E400003E3EECFE4FFFBD7E652F2A436D0F29AEA
:100E5000F2940001942B000E95230A0E941924E1BC
:100E6000955122E1946B956B060E086E096A96C047
:100E70000DF097C00EF062EC09F006C0A5F007C0B7
:100E8000A6F006C0E6FF07C0E6FF6FDFE552E552B9
:100E9000CA0EE66EE00EE66EDDEC0AF0E552E552B3
:100EA0000001966B976B08D0CA0EE66EE00EE66EF8
:100EB000DDEC0AF0E552E552F28AF0A209D0F29A8E
:100EC000F0980001962B000E9723F092F28AF0889A
:100ED000E55200EE1AF0070EE80403E3E5CFEDFF5C
:100EE000FBD700EE13F0140EE80403E3E5CFEDFFAB
:100EF000FBD7E5CFFAFFE5CFF4FFE5CFF3FFE5CF72
:100F0000F5FFE5CFF7FFE5CFF6FFE5CFEAFFE5CF49
:100F1000E9FFE5CFDAFF11000001A56BA66BF092A7
:100F2000F088F294F28AF184F18CF28E9384939E8D
:100F3000819E15DF9EDECA0EE66EE00EE66EDDECEB
:100F40000AF0E552E552A5C0E6FFA6C0E6FF0DDFB8
:020F5000F8D7D0
:0E0F5200D9CFE6FFE1CFD9FF0F0E831695161B
:100F60009594959295908C948C928C9033EC06F09D
:100F7000300EE66E2AEC0AF0E552050EE66E30EC15
:100F80000BF0E552300EE66E2AEC0AF0E552010E47
:100F9000E66E30EC0BF0E552320EE66E2AEC0AF00B
:100FA000E55215EC0BF00009FCE115EC0BF0000923
:100FB000FCE1FE0EDBCFE6FF2AEC0AF0E55215EC71
:100FC0000BF00009FCE1080EE66E2AEC0AF0E5528F
:100FD00015EC0BF00009FCE10F0EE66E2AEC0AF0AE
:100FE000E55215EC0BF00009FCE1010EE66E2AEC6F
:100FF0000AF0E55215EC0BF00009FCE1040EE66E78
:101000002AEC0AF0E55215EC0BF00009FCE1800E29
:10101000E66E8FEC09F0E552E552E7CFD9FF1200FA
:10102000D9CFE6FFDACFE6FFE1CFD9FFE2CFDAFF93
:10103000E652E652E652E652D950F90F146EFF0E10
:10104000DA20156E020E14C0DBFF030E15C0DBFFA5
:10105000020EDBCFE6FF030EDBCFE6FFF90EDBCFA0
:10106000E6FFFA0EDBCFE6FFFB0EDBCFE6FFD95043
:10107000FC0FE66EFF0EDA20E66E24EC00F0146E34
:10108000070EE15C02E2E16AE552E16E1450F3CF33
:10109000DEFFF4CFDDFFFC0EDBCFE9FFFD0EDBCF83
:1010A000EAFFEF6ADECF14F0DDCF15F014C0F3FFD6
:1010B00015C0F4FF040EE15C02E2E16AE552E16E64
:0C10C000E552E5CFDAFFE7CFD9FF1200C0
:0410CC000E0EF66EA0
:1010D000000EF76E000EF86E00010900F5509D6FCE
:1010E0000900F5509E6F03E19D6701D03DD00900D6
:1010F000F550986F0900F550996F0900F5509A6FF7
:1011000009000900F550E96E0900F550EA6E090082
:1011100009000900F5509B6F0900F5509C6F09000C
:101120000900F6CF9FF0F7CFA0F0F8CFA1F098C05C
:10113000F6FF99C0F7FF9AC0F8FF00019B5302E148
:101140009C5307E00900F550EE6E9B07F8E29C0700
:10115000F9D79FC0F6FFA0C0F7FFA1C0F8FF0001BC
:0A1160009D07000E9E5BBFD7120032
:06116A00D9CFE6FFDACF49
:10117000E6FFE1CFD9FFE2CFDAFFFB0EDBCF14F0C1
:10118000FC0EDBCF15F00001800E15141AE1FB0EEA
:10119000DBCFE9FFFC0EDBCFEAFFEECFF3FFEDCFB5
:1011A000F4FFEE2A000EEF22F3CFE9FFF4CFEAFFBF
:1011B000FD0EDBCFEFFFEF50156AF36E15C0F4FFA5
:1011C00010D0FB0EDB50FE0806E1FD0EDBCFE6FF84
:1011D00096EC0BF005D0FD0EDBCFE6FF03EC00F044
:0E11E000E552E552E5CFDAFFE7CFD9FF120066
:0211EE000650A9
:1011F0000B02F3CF02F0F4CF03F00C02F3500326FE
:10120000000EF420046E06500D02F3500426000E6A
:10121000F420056E06500E02F350052607500B020F
:10122000F3500326F4500422000E052207500C024E
:10123000F3500426F450052207500D02F350052602
:1012400008500B02F3500426F450052208500C02FB
:0E125000F350052609500B02F350052612003C
:02125E00FE0E82
:10126000E3CFE9FFFF0EE3CFEAFFF36AF46AEE5241
:1012700003E0F34AF42AFBD71200FF0EE3CFF8FF96
:10128000E552FF0EE3CFF7FFE552FF0EE3CFF6FF87
:10129000E552E66AE66AE66A0900F55209E0FD0EE3
:1012A000E32A05E1FE0EE32A02E1FF0EE32AF4D76A
:1012B000FD0EE3CF07F0FE0EE3CF08F0FF0EE3CF05
:0412C00009F012001F
:0C12C40009C013F008C012F008500D0221
:1012D000F4CF07F0F3CF06F009500E02F4CF09F077
:1012E000F3CF08F00D02F3500726F4500822E86A05
:1012F000092212500E02F3500726F4500822E86A21
:1013000009220EAE88EF09F01250085E1350095AF8
:0E13100013AE000C0D50085E0E50095A000C72
:02131E00D9CF25
:10132000E6FFE1CFD9FF0F0E95168316FE0EDB50B8
:101330008009F00B83128C948C921FEC06F08C8049
:101340001FEC06F08C900F0E8316FE0EDB38F00BB0
:10135000F00B83121FEC06F08C801FEC06F08C90D3
:0C136000F00E9512E552E7CFD9FF120005
:04136C00D9CFE6FFF0
:10137000E1CFD9FF0F0E95168316FE0EDB50400904
:10138000F00B83128C948C921FEC06F08C801FEC77
:1013900006F08C900F0E8316FE0EDB38F00BF00B70
:1013A00083121FEC06F08C801FEC06F08C90F00E80
:0A13B0009512E552E7CFD9FF1200B5
:0613BA00D9CFE6FFE1CFF0
:1013C000D9FFFD0EDBCFF6FFFE0EDBCFF7FF0800E7
:1013D000F55016E015EC0BF00009FCE1FD0EDBCF3B
:1013E000F6FFFE0EDBCFF7FF0800F550E66E04ECCB
:1013F0000AF0E552FD0EDB2AFE0EE3E3DB2AE1D71D
:08140000E552E7CFD9FF12000D
:08140800D9CFE6FFE1CFD9FFC7
:101410000F0E95168316FE0EDB50F00B83128C8296
:101420008C941FEC06F08C801FEC06F08C900F0E55
:101430008316FE0EDB38F00BF00B83121FEC06F068
:101440008C801FEC06F08C90F00E9512E552E7CFE1
:04145000D9FF1200AE
:0C145400D9CFE6FFE1CFD9FF0F0E9516AF
:101460008316FE0EDB50F00B83128C948C921FECD3
:1014700006F08C801FEC06F08C900F0E8316FE0E8B
:10148000DB38F00BF00B83121FEC06F08C801FECA6
:1014900006F08C90F00E9512E552E7CFD9FF1200BE
:1014A000D9CFE6FFE1CFD9FFFD0EDBCFE9FFFE0E7E
:1014B000DBCFEAFFEF5015E015EC0BF00009FCE183
:1014C000FD0EDBCFE9FFFE0EDBCFEAFFEF50E66E4D
:1014D00004EC0AF0E552FD0EDB2AFE0EE5E3DB2A02
:0A14E000E3D7E552E7CFD9FF120071
:0614EA00056A046A036AB2
:1014F000026A200EE76ED89006360736083609369F
:1015000002360336043605360B50025C0C50035885
:101510000D5004580E50055809E30B50025E0C5054
:10152000035A0D50045A0E50055A062AE72EE4D7E6
:021530001200A7
:0E153200D9CFE6FFE1CFD9FFE6528C848C8240
:101540001FEC06F08C801FEC06F0F00E8314DF6EAB
:101550008C901FEC06F08C801FEC06F083380F0B8C
:101560000F0BDF128C908C928C94DF50E552E55279
:06157000E7CFD9FF1200D5
:0A157600D9CFE6FFE1CFD9FFE6521E
:101580008C848C921FEC06F08C801FEC06F0F00E21
:101590008314DF6E8C901FEC06F08C801FEC06F03D
:1015A00083380F0B0F0BDF128C908C947F0EDF149F
:0A15B000E552E552E7CFD9FF120023
:0615BA00D9CFE6FFDACFF5
:1015C000E6FFE1CFD9FFE2CFDAFFE652E652FC0EAA
:1015D000DBCFDEFFDBCFDDFF010EDB50D76EDF5050
:1015E000D66EE552E552E552E5CFDAFFE7CFD9FFF7
:0215F0001200E7
:0E15F200D9CFE6FFDACFE6FFE1CFD9FFE2CF97
:10160000DAFFFD0EDB507F0BD56ED76AD66AF294F7
:10161000FD0EDBAE02D0F28A01D0F29AD58EE552F1
:0A162000E5CFDAFFE7CFD9FF120093
:06162A008C848C921FEC81
:1016300006F08C801FEC06F083AE09D08C901FEC76
:1016400006F08C801FEC06F08C908C94010C8C9032
:101650001FEC06F08C801FEC06F08C908C94000C34
:10166000FF0EE3501C6EEF0E01D0F30EE76EE72E77
:1016700037EF0BF00C0E1B6EE76AE72E3DEF0BF019
:0E1680001B2E3CEF0BF01C2E35EF0BF0120072
:02168E00F36AFD
:10169000F46AFF0EE124E96EFF0EE220EA6EED66C9
:1016A00007D02F0EEF6404D03A0EEF6001D0F32A7A
:0216B000120026
:0E16B200FF0EE3501C6E480E01D04C0EE76E8A
:1016C000E72EFED7E76AE72EFED71C2EF7D70000DD
:0216D000120006
:0E16D200000EF36E00EE00F0060E01D81200BE
:1016E000EA6002D0EE6AFCD7F350E9601200EE6ABD
:0216F000FCD725
:0E16F200486561727420526174653A200025CB
:0F170000642062706D20202020202020202000F7
:1017100015EE00F025EE00F0F86A019C66EC08F08A
:0C172000B8EC0BF08CEC07F0FBD71200CB
:04172C00FF0EE35079
:10173000ACBA04D0AF6AAB8EAC8A949CACA2FED794
:08174000AD6EF36EF46A1200B5
:08174800FF0EE350E84E120011
:0E175000000000D000D000D0E82EFAD7120022
:02175E00303128
:0F17600032333435363738396162636465660079
:02177000120065
:0E1772002020202020202020202020202020A9
:0A17800020202020200000000000BF
:020000040030CA
:0100010022DC
:010003000EEE
:010006008178
:00000001FF
